:1000000029C000002FC000002DC000002BC0000040
:1000100029C0000027C0000025C0000023C0000048
:1000200021C000001FC000001DC000001BC0000058
:1000300019C0000083C2000015C0000013C00000FA
:1000400011C000000FC000000DC000000BC0000078
:1000500009C0000011241FBECFE5D8E0DEBFCDBF30
:1000600094D0D2C2CDCF11B88AE280B9089594EA73
:1000700096BF95B3936095BB06B607FEFDCF91B1D1
:10008000987F983021F0903111F081E0089583B984
:1000900084E886BF06B607FEFDCF81B1887F883130
:1000A00011F0803491F780E0089584E986BF06B6A8
:1000B00004FCFDCF089583B984E886BF06B607FE29
:1000C000FDCF91B1987F81E0983209F480E00895E6
:1000D000CF93DF931F92CDB7DEB7682B862F8C604E
:1000E0006983E9DF81E08A95F1F76981862F837F53
:1000F0008860E1DF80E18A95F1F70F90DF91CF9181
:1001000008951F93CF93DF93C82F162F8EE4AFDF90
:10011000DC2FD07F8D2F812B8860CDDF612F8D2F3D
:10012000D7DF80E1C89FE0011124CE018860812BD8
:10013000C2DF612F8C2FCCDFDF91CF911F91B5CF24
:10014000CF9391DF60E083E0DCDF82EE94E0019703
:10015000F1F760E083E0D5DFC2E38C2F8A95F1F7F9
:1001600060E083E0CEDFCA95F1F760E082E0C9DFAE
:1001700060E088E2C6DF60E088E0C3DF60E081E045
:10018000C0DF60E08CE0CF91BCCFCF93DF9300D095
:1001900000D0CDB7DEB760D183EC99E00197F1F7DD
:1001A00000C00000CDDF8CE090E0B8D18AB3807C45
:1001B0008ABB87B38F6187BB88B3807E88BB81B3DE
:1001C0008C6381BB82B38C6382BB9FE3EDE0F3E081
:1001D0009150E040F040E1F700C0000070E040E0E6
:1001E00060E050E09CE0A92EB12C06E715E026EC7B
:1001F000822E25E0922E38EEE32E33E0F32E89E6B0
:1002000098E10197F1F700C000004B8359836A839E
:100210007C83BCD16C014B8159816A817C819CE4D7
:10022000C916D10484F0E9E7EE16E5E0FE0638F4DD
:10023000AC14BD0424F0FAE0EF0EF11C0FC02CE466
:10024000C216D10459F480EBE81684E0F80630F0C9
:10025000CA14DB041CF09AE0E91AF1084B835983B5
:100260006A837C83FED04B8159816A817C8187308F
:1002700079F184F4833061F144F48130E1F10CF0E0
:1002800040C0882309F440C08AC0853009F458C0B2
:10029000ECF41EC08B3041F124F4893009F114F5DF
:1002A00023C08D3041F16CF18E3059F18F3009F05F
:1002B00076C02AC0772309F464C070E051E000E200
:1002C00016E080E7882E86E0982E69C041E0F6CFE0
:1002D00041E0511141C0662309F442C060E0EFCF14
:1002E00071E049C071E030C071E051113CC066233B
:1002F000F1F160E02AC041113DC07723F1F170E0D7
:1003000020C0411120C0D6CF411108C0772359F039
:1003100070E000E7802E06E0902E09C01CE1812EDF
:1003200015E0912E04C0B6EC8B2EB5E09B2E40E07C
:1003300051112FC0662389F160E000E216E02FC062
:1003400041E061E00AC040E051E000E216E0ACE1CB
:100350008A2EA5E09A2E23C050E00CEC14E0B1CF19
:1003600006E715E0AECF50E00CEC14E0F0CF06E766
:1003700015E0EDCF40E061E0F7CF61E00CEC14E078
:1003800003C051E000E216E0F6EC8F2EF5E09F2E60
:1003900006C050E00CEC14E002C006E715E083B79D
:1003A000816083BFC09AC70184559F4FE4E0969552
:1003B0008795EA95E1F721E030E006C012BEE2B78A
:1003C000E430E8F32F5F3F4F82179307B8F7C098E8
:1003D000C19AC40184559F4F34E0969587953A950C
:1003E000E1F721E030E006C012BEE2B7E430E8F306
:1003F0002F5F3F4F82179307B8F7C198C29AC80181
:1004000084559F4F24E0969587952A95E1F721E042
:1004100030E006C012BEE2B7E430E8F32F5F3F4F92
:1004200082179307B8F7C298C39A89E690E004C090
:1004300012BE22B72430E8F30197D1F7C398C49ACB
:100440008AE490E004C012BE22B72430E8F301979A
:10045000D1F7C4985601D3CE80E487B987E886B92E
:100460000895DF92EF92FF920F931F93CF93DF9344
:10047000CDB7DEB728970FB6F894DEBF0FBECDBF5D
:10048000FE01319688E0DF011D928A95E9F78F0120
:10049000D12C83E0E82EF12C87B1887F8D2987B994
:1004A00023E030E0369A3699FECF84B195B1408191
:1004B0005181840F951F918380832150310991F7D9
:1004C000B7017BD061937193D394B4E0DB12E4CF96
:1004D00020E030E080E041E050E0F801619171916E
:1004E0008F016337710538F0BA01022E01C0660F23
:1004F0000A94EAF7862B2F5F3F4F2430310569F7C6
:1005000028960FB6F894DEBF0FBECDBFDF91CF9116
:100510001F910F91FF90EF90DF900895292F3327BF
:1005200027FD3A9520BD89B988E98AB986E880BD5A
:10053000599A08955F9BFECF8CB108951F920F9238
:100540000FB60F9211242F933F934F935F936F93A6
:100550007F938F939F93AF93BF93EF93FF93EADFC4
:100560008235E9F7E7DFE6DFE5DFFF91EF91BF9145
:10057000AF919F918F917F916F915F914F913F913B
:100580002F910F900FBE0F901F90189587B1887F05
:10059000856087B923E030E080E090E0369A3699B4
:1005A000FECF44B155B1840F951F21503109B1F7E9
:1005B00063E070E016D0CB010895AA1BBB1B51E18C
:1005C00007C0AA1FBB1FA617B70710F0A61BB70BC3
:1005D000881F991F5A95A9F780959095BC01CD0168
:1005E000089597FB072E16F4009406D077FD08D0E7
:1005F000E4DF07FC05D03EF4909581959F4F089568
:0C060000709561957F4F0895F894FFCF2E
:00000001FF
